:100000005DC0000080C000007EC000007CC0000019
:100010007AC0000078C0000076C0000074C0000004
:1000200072C0000070C000006EC000006CC0000014
:100030006AC0000068C0000066C0000064C0000024
:1000400062C2000060C00000CDC20000A6C2000075
:100050005AC0000058C0000056C0000054C0000044
:1000600052C0000050C00000000000002400270023
:100070002A0000000000250028002B0004040404CE
:100080000404040402020202020203030303030342
:10009000010204081020408001020408102001021F
:1000A00004081020000000080002010000030407FB
:1000B00000000000000000002403430511241FBEBF
:1000C000CFEFD8E0DEBFCDBF11E0A0E0B1E0EEE6BB
:1000D000FFE002C005900D92AE31B107D9F721E0E3
:1000E000AEE1B1E001C01D92A23DB207E1F710E020
:1000F000CDE5D0E003C02197FE01ECD4CC35D1078B
:10010000D1F723D328C77CCF90E0FC01EC55FF4FFB
:100110003491FC01E057FF4F2491FC01E458FF4F5C
:10012000E491EE2309F43BC0332339F1333091F0ED
:1001300038F43130A9F0323001F584B58F7D12C02A
:10014000373091F03830A1F03430B9F4809180002C
:100150008F7D03C0809180008F77809380000DC0D9
:1001600084B58F7784BD09C08091B0008F7703C0BC
:100170008091B0008F7D8093B000F0E0EE0FFF1F04
:10018000EE58FF4FA591B4918FB7F894EC9161119F
:1001900003C020952E2301C02E2B2C938FBF0895D2
:1001A0003FB7F8948091270190912801A0912901EF
:1001B000B0912A0126B5A89B05C02F3F19F00196E2
:1001C000A11DB11D3FBFBA2FA92F982F8827820FDD
:1001D000911DA11DB11DBC01CD0142E0660F771F2D
:1001E000881F991F4A95D1F708958F929F92AF92D9
:1001F000BF92CF92DF92EF92FF926B017C01D0DF32
:100200004B015C01C114D104E104F104E9F0C8DF41
:10021000DC01CB0188199909AA09BB09883E9340E2
:10022000A105B10578F321E0C21AD108E108F1086F
:1002300088EE880E83E0981EA11CB11CC114D10465
:10024000E104F10421F7DECFFF90EF90DF90CF9033
:10025000BF90AF909F908F900895CF92DF92EF92D2
:10026000FF920F931F93CF93DF936C017A018B0161
:10027000C0E0D0E0CE15DF0589F0D8016D918D0189
:10028000D601ED91FC910190F081E02DC601099518
:10029000892B11F47E0102C02196ECCFC701DF91BA
:1002A000CF911F910F91FF90EF90DF90CF90089525
:1002B000089580E090E00895FC01538D448D252F32
:1002C00030E0842F90E0821B930B541710F0CF96F0
:1002D000089501970895FC01918D828D981761F022
:1002E000828DDF01A80FB11D5D968C91928D9F5F6D
:1002F0009F73928F90E008958FEF9FEF0895FC0118
:10030000918D828D981731F0828DE80FF11D858DCA
:1003100090E008958FEF9FEF0895FC01918D228D5D
:10032000892F90E0805C9F4F821B91098F739927E2
:1003300008958BE291E0F1DF21E0892B09F420E0C0
:10034000822F0895FC01848DDF01A80FB11DA35AEF
:10035000BF4F2C91848D90E001968F739927848FE5
:10036000A689B7892C93A089B1898C9180648C93DC
:10037000938D848D981306C00288F389E02D8081C7
:100380008F7D80830895EF92FF920F931F93CF93F9
:10039000DF93EC0181E0888F9B8D8C8D981305C0D5
:1003A000E889F989808185FD23C0F62E0B8D10E048
:1003B0000F5F1F4F0F731127E02E8C8DE8120BC0BB
:1003C0000FB607FCFACFE889F989808185FFF5CF60
:1003D000CE01B8DFF2CF8B8DFE01E80FF11DE35A9D
:1003E000FF4FF0820B8FEA89FB898081806207C012
:1003F000EE89FF896083E889F98980818064808340
:1004000081E090E0DF91CF911F910F91FF90EF90ED
:100410000895CF93DF93EC01888D8823C1F0EA899A
:10042000FB89808185FD05C0A889B9898C9186FDED
:100430000EC00FB607FCF5CF808185FFF2CFA889EB
:10044000B9898C9185FFEDCFCE017CDFE8CFDF91BC
:10045000CF91089580E090E0892B21F06ADF81112F
:100460000C94000008958F929F92AF92BF920F93C9
:100470001F93CF93DF93CDB7DEB7A1970FB6F89454
:10048000DEBF0FBECDBF19A2423008F44AE08E0194
:100490000F5D1F4F842E912CA12CB12CA50194012E
:1004A000F7D2E62FB901CA0101501109EA3014F45C
:1004B000E05D01C0E95CD801EC93232B242B252BB4
:1004C00069F70115110569F0F80101900020E9F7BD
:1004D0003197AF01401B510BB8018BE291E0BDDEBB
:1004E00002C080E090E0A1960FB6F894DEBF0FBE88
:1004F000CDBFDF91CF911F910F91BF90AF909F9093
:100500008F900895DDD41F920F920FB60F92112491
:100510002F933F938F939F93AF93BF93809123012A
:1005200090912401A0912501B091260130912201E2
:1005300023E0230F2D3720F40196A11DB11D05C026
:1005400026E8230F0296A11DB11D2093220180935E
:10055000230190932401A0932501B093260180915B
:10056000270190912801A0912901B0912A010196BB
:10057000A11DB11D8093270190932801A09329010B
:10058000B0932A01BF91AF919F918F913F912F918D
:100590000F900FBE0F901F9018951F920F920FB6DD
:1005A0000F9211242F933F934F935F936F937F93F9
:1005B0008F939F93AF93BF93EF93FF938BE291E061
:1005C000C1DEFF91EF91BF91AF919F918F917F918C
:1005D0006F915F914F913F912F910F900FBE0F90B0
:1005E0001F9018951F920F920FB60F9211242F9300
:1005F0008F939F93EF93FF93E0913B01F0913C0128
:100600008081E0914101F091420182FD12C0908110
:10061000809144018F5F8F7320914501821751F0C3
:10062000E0914401F0E0E55DFE4F958F8093440139
:1006300001C08081FF91EF919F918F912F910F9039
:100640000FBE0F901F90189510922E0110922D0141
:1006500088EE93E0A0E0B0E080932F01909330010A
:10066000A0933101B09332018CE091E090932C0182
:1006700080932B0185EC90E09093380180933701B3
:1006800084EC90E090933A018093390180EC90E003
:1006900090933C0180933B0181EC90E090933E016C
:1006A00080933D0182EC90E09093400180933F0164
:1006B00086EC90E0909342018093410110924401B6
:1006C0001092450110924601109247011092C90103
:1006D0001092C8011092CB011092CA011092CD0164
:1006E0001092CC0161E070E080E090E026D30097AA
:1006F00089F09093C9018093C8011092CB011092A8
:10070000CA012091CC013091CD01232BB9F4FC0119
:10071000108214C08091C8019091C901009709F01E
:1007200074D21092C9011092C8011092CD0110929A
:10073000CC011092CB011092CA0108951092CD0104
:100740001092CC016CE171E0C8C3789484B58260EA
:1007500084BD84B5816084BD85B5826085BD85B565
:10076000816085BD80916E00816080936E001092E3
:10077000810080918100826080938100809181005E
:1007800081608093810080918000816080938000EF
:100790008091B10084608093B1008091B00081604D
:1007A0008093B00080917A00846080937A00809179
:1007B0007A00826080937A0080917A0081608093D1
:1007C0007A0080917A00806880937A001092C1004C
:1007D000E0913B01F0913C0182E08083E0913701A0
:1007E000F09138011082E0913901F0913A0180E1F5
:1007F000808310924301E0913F01F091400186E037
:100800008083E0913D01F0913E0180818061808391
:10081000E0913D01F0913E01808188608083E0910C
:100820003D01F0913E01808180688083E0913D012F
:10083000F0913E0180818F7D808322E030E0F901DC
:10084000E057FF4F4491F901E458FF4F849188230A
:1008500099F090E0880F991FFC01E859FF4FA5918E
:10086000B491FC01EE58FF4F859194918FB7F894A5
:10087000EC91E42BEC938FBF2F5F3F4F2C30310571
:10088000F1F610E410937C0080917A0080648093EC
:100890007A0080917A0086FDFCCF809178002091CB
:1008A000790090E0922B90930101809300012091B8
:1008B0002001309121012817390724F49093210158
:1008C0008093200120911E0130911F018217930710
:1008D00024F490931F0180931E01C2E0D0E0C23047
:1008E000D10519F461E082E004C08C2FC0FF02C082
:1008F00061E00ADC2196CB30D10589F764E670E02F
:1009000080E090E072DCC2E0D0E0C230D10519F4A2
:1009100060E082E004C08C2FC0FF02C060E0F4DB26
:100920002196CB30D10589F764E670E080E090E055
:100930005CDCC3E0D0E0C330D10519F461E083E0B2
:1009400004C08C2FC0FD02C061E0DEDB2196CA30FE
:10095000D10589F764E670E080E090E046DCC3E012
:10096000D0E0C330D10519F460E083E004C08C2FDF
:10097000C0FD02C060E0C8DB2196CA30D10589F70E
:1009800068EC70E080E090E030DCC3E0D0E0C330A1
:10099000D10519F461E083E004C08C2FC0FD02C0D2
:1009A00061E0B2DB2196CA30D10589F764E670E0D8
:1009B00080E090E01ADCC3E0D0E0C330D10519F448
:1009C00060E083E004C08C2FC0FD02C060E09CDBCF
:1009D0002196CA30D10589F7C2E0D0E0C230D105F6
:1009E00019F461E082E004C08C2FC0FF02C061E016
:1009F0008BDB2196CB30D10589F764E670E080E08F
:100A000090E0F3DBC2E0D0E0C230D10519F460E041
:100A100082E004C08C2FC0FF02C060E075DB21962D
:100A2000CB30D10589F7C0900001D09001010D2C89
:100A3000000CEE08FF08F7FE14C0E0912B01F091C6
:100A40002C010190F081E02D6DE28BE291E009959F
:100A500066277727CB016C197D098E099F094AE02B
:100A600003C04AE0C701B601FEDC42E050E06AE1A3
:100A700071E08BE291E0F1DB68EC70E080E090E007
:100A8000B4DBE8DCFFCE8091C8019091C901BDC004
:100A9000A1E21A2EAA1BBB1BFD010DC0AA1FBB1F82
:100AA000EE1FFF1FA217B307E407F50720F0A21BF4
:100AB000B30BE40BF50B661F771F881F991F1A9461
:100AC00069F760957095809590959B01AC01BD018B
:100AD000CF010895EE0FFF1F0590F491E02D0994CA
:100AE000CF93DF938230910510F482E090E0E091A3
:100AF000D001F091D10120E030E0C0E0D0E03097AB
:100B000011F14081518148175907C0F04817590722
:100B100061F482819381209719F09B838A832BC093
:100B20009093D1018093D00126C02115310519F091
:100B30004217530718F49A01BE01DF01EF0102804A
:100B4000F381E02DDCCF2115310509F1281B390B8C
:100B50002430310590F412968D919C911397611574
:100B6000710521F0FB019383828304C09093D1012E
:100B70008093D001FD01329644C0FD01E20FF31FC6
:100B800081939193225031092D933C933AC0209147
:100B9000CE013091CF01232B41F4209104013091FB
:100BA00005013093CF012093CE01209102013091B5
:100BB00003012115310541F42DB73EB740910601DF
:100BC00050910701241B350BE091CE01F091CF012C
:100BD000E217F307A0F42E1B3F0B2817390778F014
:100BE000AC014E5F5F4F2417350748F04E0F5F1F73
:100BF0005093CF014093CE018193919302C0E0E0E6
:100C0000F0E0CF01DF91CF9108950F931F93CF9321
:100C1000DF93009709F48CC0FC0132971382128293
:100C20000091D0011091D1010115110581F42081AD
:100C30003181820F931F2091CE013091CF0128176F
:100C4000390779F5F093CF01E093CE0171C0D80157
:100C500040E050E0AE17BF0750F412962D913C9142
:100C60001397AD012115310509F1D901F3CF9D018C
:100C7000DA013383228360817181860F971F821787
:100C8000930769F4EC0128813981260F371F2E5F05
:100C90003F4F318320838A819B8193838283452BBD
:100CA00029F4F093D101E093D00142C01396FC9354
:100CB000EE931297ED01499159919E01240F351F32
:100CC000E217F30771F480819181840F951F0296DA
:100CD00011969C938E938281938113969C938E930D
:100CE0001297E0E0F0E0D80112968D919C91139755
:100CF000009719F0F8018C01F6CF8D919C91980125
:100D00002E5F3F4F820F931F2091CE013091CF0174
:100D10002817390769F4309729F41092D1011092FD
:100D2000D00102C0138212821093CF010093CE0132
:100D3000DF91CF911F910F910895A0E0B0E0E2EA1A
:100D4000F6E0D6C0EC01009719F4CB01C9DEB4C0BF
:100D5000FC01E60FF71F9C0122503109E217F3074F
:100D600008F4A8C0D9010D911C9111970617170717
:100D7000A8F00530110508F49BC0C8010497861738
:100D8000970708F495C002501109061B170B019331
:100D900011936D937C93CF0138DF8AC05B01A01A59
:100DA000B10A4C01800E911EA091D001B091D101E9
:100DB00040E050E0E12CF12C109709F44AC0A8154E
:100DC000B905D1F56D907C901197630182E0C80E52
:100DD000D11CCA14DB0480F1A3014A195B096A0122
:100DE00082E0C80ED11C1296BC9012971396AC915B
:100DF000B5E0CB16D10440F0B282A3835183408387
:100E0000D9016D937C930AC00E5F1F4FC301800F01
:100E1000911FF90191838083EB2DFA2FE114F104E6
:100E200031F0D7011396FC93EE93129741C0F093E3
:100E3000D101E093D0013CC08D919C91119748174E
:100E4000590708F4AC017D0112960D90BC91A02DBC
:100E5000B3CF8091CE019091CF0188159905E1F42F
:100E600046175707C8F4809102019091030100973B
:100E700041F48DB79EB74091060150910701841B44
:100E8000950BE817F907B0F4F093CF01E093CE018A
:100E9000F901718360830CC0CB0122DE7C010097D5
:100EA00049F0A801BE0110D0CE01AFDEC70104C0D9
:100EB000CE0102C080E090E0CDB7DEB7EEE034C0F6
:100EC00081E090E0F89447C0FB01DC0102C0019092
:100ED0000D9241505040D8F70895FB01DC0101907C
:100EE0000D920020E1F708952F923F924F925F926A
:100EF0006F927F928F929F92AF92BF92CF92DF922A
:100F0000EF92FF920F931F93CF93DF93CDB7DEB78E
:100F1000CA1BDB0B0FB6F894DEBF0FBECDBF099422
:100F20002A88398848885F846E847D848C849B8479
:100F3000AA84B984C884DF80EE80FD800C811B8187
:100F4000AA81B981CE0FD11D0FB6F894DEBF0FBEB6
:100F5000CDBFED01089510E0CDE5D0E003C0FE0166
:0E0F6000B9DD2196CE35D107D1F7F894FFCF39
:100F6E0064000000D201800000000000C3012D01CA
:0E0F7E005C0109028D016B017F010D0A00006C
:00000001FF
